{
  "contractName": "TodoList",
  "abi": [
    {
      "inputs": [],
      "payable": false,
      "stateMutability": "nonpayable",
      "type": "constructor"
    },
    {
      "anonymous": false,
      "inputs": [
        {
          "indexed": false,
          "internalType": "uint256",
          "name": "id",
          "type": "uint256"
        }
      ],
      "name": "DeleteTask",
      "type": "event"
    },
    {
      "anonymous": false,
      "inputs": [
        {
          "indexed": false,
          "internalType": "uint256",
          "name": "id",
          "type": "uint256"
        }
      ],
      "name": "MarkDone",
      "type": "event"
    },
    {
      "anonymous": false,
      "inputs": [
        {
          "indexed": false,
          "internalType": "uint256",
          "name": "taskCount",
          "type": "uint256"
        },
        {
          "indexed": false,
          "internalType": "string",
          "name": "name",
          "type": "string"
        },
        {
          "indexed": false,
          "internalType": "string",
          "name": "aadhaar",
          "type": "string"
        },
        {
          "indexed": false,
          "internalType": "string",
          "name": "pan",
          "type": "string"
        },
        {
          "indexed": false,
          "internalType": "string",
          "name": "bank",
          "type": "string"
        },
        {
          "indexed": false,
          "internalType": "string",
          "name": "ifsc",
          "type": "string"
        },
        {
          "indexed": false,
          "internalType": "string",
          "name": "phone",
          "type": "string"
        },
        {
          "indexed": false,
          "internalType": "string",
          "name": "doctor",
          "type": "string"
        },
        {
          "indexed": false,
          "internalType": "string",
          "name": "city",
          "type": "string"
        },
        {
          "indexed": false,
          "internalType": "string",
          "name": "pincode",
          "type": "string"
        },
        {
          "indexed": false,
          "internalType": "uint256",
          "name": "age",
          "type": "uint256"
        },
        {
          "indexed": false,
          "internalType": "uint256",
          "name": "amount",
          "type": "uint256"
        }
      ],
      "name": "TaskAdded",
      "type": "event"
    },
    {
      "constant": true,
      "inputs": [],
      "name": "taskCount",
      "outputs": [
        {
          "internalType": "uint256",
          "name": "",
          "type": "uint256"
        }
      ],
      "payable": false,
      "stateMutability": "view",
      "type": "function"
    },
    {
      "constant": true,
      "inputs": [],
      "name": "getTaskCount",
      "outputs": [
        {
          "internalType": "uint256",
          "name": "",
          "type": "uint256"
        }
      ],
      "payable": false,
      "stateMutability": "view",
      "type": "function"
    },
    {
      "constant": false,
      "inputs": [
        {
          "internalType": "string",
          "name": "name",
          "type": "string"
        },
        {
          "internalType": "string",
          "name": "aadhaar",
          "type": "string"
        },
        {
          "internalType": "string",
          "name": "pan",
          "type": "string"
        },
        {
          "internalType": "string",
          "name": "bank",
          "type": "string"
        },
        {
          "internalType": "string",
          "name": "ifsc",
          "type": "string"
        },
        {
          "internalType": "string",
          "name": "phone",
          "type": "string"
        },
        {
          "internalType": "string",
          "name": "doctor",
          "type": "string"
        },
        {
          "internalType": "string",
          "name": "city",
          "type": "string"
        },
        {
          "internalType": "string",
          "name": "pincode",
          "type": "string"
        },
        {
          "internalType": "uint256",
          "name": "age",
          "type": "uint256"
        },
        {
          "internalType": "uint256",
          "name": "amount",
          "type": "uint256"
        }
      ],
      "name": "addTask",
      "outputs": [],
      "payable": false,
      "stateMutability": "nonpayable",
      "type": "function"
    },
    {
      "constant": false,
      "inputs": [
        {
          "internalType": "uint256",
          "name": "_id",
          "type": "uint256"
        }
      ],
      "name": "deleteTask",
      "outputs": [],
      "payable": false,
      "stateMutability": "nonpayable",
      "type": "function"
    },
    {
      "constant": false,
      "inputs": [
        {
          "internalType": "uint256",
          "name": "_id",
          "type": "uint256"
        }
      ],
      "name": "markDone",
      "outputs": [],
      "payable": false,
      "stateMutability": "nonpayable",
      "type": "function"
    },
    {
      "constant": true,
      "inputs": [
        {
          "internalType": "uint256",
          "name": "_id",
          "type": "uint256"
        }
      ],
      "name": "getTask",
      "outputs": [
        {
          "components": [
            {
              "internalType": "uint256",
              "name": "id",
              "type": "uint256"
            },
            {
              "internalType": "string",
              "name": "name",
              "type": "string"
            },
            {
              "internalType": "string",
              "name": "aadhaar",
              "type": "string"
            },
            {
              "internalType": "string",
              "name": "pan",
              "type": "string"
            },
            {
              "internalType": "string",
              "name": "bank",
              "type": "string"
            },
            {
              "internalType": "string",
              "name": "ifsc",
              "type": "string"
            },
            {
              "internalType": "string",
              "name": "phone",
              "type": "string"
            },
            {
              "internalType": "string",
              "name": "doctor",
              "type": "string"
            },
            {
              "internalType": "string",
              "name": "city",
              "type": "string"
            },
            {
              "internalType": "string",
              "name": "pincode",
              "type": "string"
            },
            {
              "internalType": "uint256",
              "name": "age",
              "type": "uint256"
            },
            {
              "internalType": "uint256",
              "name": "amount",
              "type": "uint256"
            }
          ],
          "internalType": "struct TodoList.Task",
          "name": "",
          "type": "tuple"
        }
      ],
      "payable": false,
      "stateMutability": "view",
      "type": "function"
    }
  ],
  "bytecode": "0x608060405234801561001057600080fd5b506000805561137a806100246000396000f3fe608060405234801561001057600080fd5b50600436106100625760003560e01c80631d65e77e146100675780634ad0e59014610090578063560f3192146100a5578063b6cb58a5146100b8578063c17a340e146100cd578063e306cded146100d5575b600080fd5b61007a610075366004610fc7565b6100e8565b6040516100879190611169565b60405180910390f35b6100a361009e366004610fc7565b61067e565b005b6100a36100b3366004610fc7565b6106c7565b6100c061099d565b6040516100879190611181565b6100c06109a3565b6100a36100e3366004610e02565b6109aa565b6100f0610beb565b6001808303815481106100ff57fe5b90600052602060002090600c02016040518061018001604052908160008201548152602001600182018054600181600116156101000203166002900480601f0160208091040260200160405190810160405280929190818152602001828054600181600116156101000203166002900480156101bc5780601f10610191576101008083540402835291602001916101bc565b820191906000526020600020905b81548152906001019060200180831161019f57829003601f168201915b5050509183525050600282810180546040805160206001841615610100026000190190931694909404601f8101839004830285018301909152808452938101939083018282801561024e5780601f106102235761010080835404028352916020019161024e565b820191906000526020600020905b81548152906001019060200180831161023157829003601f168201915b505050918352505060038201805460408051602060026001851615610100026000190190941693909304601f81018490048402820184019092528181529382019392918301828280156102e25780601f106102b7576101008083540402835291602001916102e2565b820191906000526020600020905b8154815290600101906020018083116102c557829003601f168201915b505050918352505060048201805460408051602060026001851615610100026000190190941693909304601f81018490048402820184019092528181529382019392918301828280156103765780601f1061034b57610100808354040283529160200191610376565b820191906000526020600020905b81548152906001019060200180831161035957829003601f168201915b505050918352505060058201805460408051602060026001851615610100026000190190941693909304601f810184900484028201840190925281815293820193929183018282801561040a5780601f106103df5761010080835404028352916020019161040a565b820191906000526020600020905b8154815290600101906020018083116103ed57829003601f168201915b505050918352505060068201805460408051602060026001851615610100026000190190941693909304601f810184900484028201840190925281815293820193929183018282801561049e5780601f106104735761010080835404028352916020019161049e565b820191906000526020600020905b81548152906001019060200180831161048157829003601f168201915b505050918352505060078201805460408051602060026001851615610100026000190190941693909304601f81018490048402820184019092528181529382019392918301828280156105325780601f1061050757610100808354040283529160200191610532565b820191906000526020600020905b81548152906001019060200180831161051557829003601f168201915b505050918352505060088201805460408051602060026001851615610100026000190190941693909304601f81018490048402820184019092528181529382019392918301828280156105c65780601f1061059b576101008083540402835291602001916105c6565b820191906000526020600020905b8154815290600101906020018083116105a957829003601f168201915b505050918352505060098201805460408051602060026001851615610100026000190190941693909304601f810184900484028201840190925281815293820193929183018282801561065a5780601f1061062f5761010080835404028352916020019161065a565b820191906000526020600020905b81548152906001019060200180831161063d57829003601f168201915b50505050508152602001600a8201548152602001600b820154815250509050919050565b60005481111561068d57600080fd5b7f6d14145fcb59b6bfacab92fd5100fc6b60cb75d4f6e0fe271d525bf6e2d4d1aa816040516106bc9190611181565b60405180910390a150565b6000548111156106d65761099a565b60001981015b6001600054038110156108ac57600181600101815481106106f957fe5b90600052602060002090600c02016001828154811061071457fe5b90600052602060002090600c02016000820154816000015560018201816001019080546001816001161561010002031660029004610753929190610c4c565b5060028281018054610778928481019291600019610100600183161502011604610c4c565b50600382018160030190805460018160011615610100020316600290046107a0929190610c4c565b50600482018160040190805460018160011615610100020316600290046107c8929190610c4c565b50600582018160050190805460018160011615610100020316600290046107f0929190610c4c565b5060068201816006019080546001816001161561010002031660029004610818929190610c4c565b5060078201816007019080546001816001161561010002031660029004610840929190610c4c565b5060088201816008019080546001816001161561010002031660029004610868929190610c4c565b5060098201816009019080546001816001161561010002031660029004610890929190610c4c565b50600a8281015490820155600b918201549101556001016106dc565b5060018054806108b857fe5b600082815260208120600c60001990930192830201818155906108de6001830182610cd1565b6108ec600283016000610cd1565b6108fa600383016000610cd1565b610908600483016000610cd1565b610916600583016000610cd1565b610924600683016000610cd1565b610932600783016000610cd1565b610940600883016000610cd1565b61094e600983016000610cd1565b506000600a8201819055600b909101819055915580546000190190556040517f8c2dccd1e8cc953301e21aa9acd0c9c15ed4464a558ed394b00c243d523eb538906106bc908390611181565b50565b60005481565b6000545b90565b6000805460010190556109bb610beb565b50604080516101808101825260008054825260208083018f81529383018e9052606083018d9052608083018c905260a083018b905260c083018a905260e08301899052610100830188905261012083018790526101408301869052610160830185905260018054808201808355919093528351600c9093027fb10e2d527612073b26eecdfd717e6a320cf44b4afac2b0732d9fcbe2b7fa0cf681019384559451805194959194869493610a92937fb10e2d527612073b26eecdfd717e6a320cf44b4afac2b0732d9fcbe2b7fa0cf701920190610d15565b5060408201518051610aae916002840191602090910190610d15565b5060608201518051610aca916003840191602090910190610d15565b5060808201518051610ae6916004840191602090910190610d15565b5060a08201518051610b02916005840191602090910190610d15565b5060c08201518051610b1e916006840191602090910190610d15565b5060e08201518051610b3a916007840191602090910190610d15565b506101008201518051610b57916008840191602090910190610d15565b506101208201518051610b74916009840191602090910190610d15565b5061014082015181600a015561016082015181600b01555050507fe634de86c09a0ebe3cc12f741c11016c13992305610e70e024295b28d05452206000548d8d8d8d8d8d8d8d8d8d8d604051610bd59c9b9a9998979695949392919061118f565b60405180910390a1505050505050505050505050565b6040518061018001604052806000815260200160608152602001606081526020016060815260200160608152602001606081526020016060815260200160608152602001606081526020016060815260200160008152602001600081525090565b828054600181600116156101000203166002900490600052602060002090601f016020900481019282601f10610c855780548555610cc1565b82800160010185558215610cc157600052602060002091601f016020900482015b82811115610cc1578254825591600101919060010190610ca6565b50610ccd929150610d83565b5090565b50805460018160011615610100020316600290046000825580601f10610cf7575061099a565b601f01602090049060005260206000209081019061099a9190610d83565b828054600181600116156101000203166002900490600052602060002090601f016020900481019282601f10610d5657805160ff1916838001178555610cc1565b82800160010185558215610cc1579182015b82811115610cc1578251825591602001919060010190610d68565b6109a791905b80821115610ccd5760008155600101610d89565b600082601f830112610dae57600080fd5b8135610dc1610dbc826112a8565b611281565b91508082526020830160208301858383011115610ddd57600080fd5b610de88382846112dd565b50505092915050565b8035610dfc81611323565b92915050565b60008060008060008060008060008060006101608c8e031215610e2457600080fd5b8b3567ffffffffffffffff811115610e3b57600080fd5b610e478e828f01610d9d565b9b505060208c013567ffffffffffffffff811115610e6457600080fd5b610e708e828f01610d9d565b9a505060408c013567ffffffffffffffff811115610e8d57600080fd5b610e998e828f01610d9d565b99505060608c013567ffffffffffffffff811115610eb657600080fd5b610ec28e828f01610d9d565b98505060808c013567ffffffffffffffff811115610edf57600080fd5b610eeb8e828f01610d9d565b97505060a08c013567ffffffffffffffff811115610f0857600080fd5b610f148e828f01610d9d565b96505060c08c013567ffffffffffffffff811115610f3157600080fd5b610f3d8e828f01610d9d565b95505060e08c013567ffffffffffffffff811115610f5a57600080fd5b610f668e828f01610d9d565b9450506101008c013567ffffffffffffffff811115610f8457600080fd5b610f908e828f01610d9d565b935050610120610fa28e828f01610df1565b925050610140610fb48e828f01610df1565b9150509295989b509295989b9093969950565b600060208284031215610fd957600080fd5b6000610fe58484610df1565b949350505050565b6000610ff8826112d0565b61100281856112d4565b93506110128185602086016112e9565b61101b81611319565b9093019392505050565b805160009061018084019061103a858261115a565b50602083015184820360208601526110528282610fed565b9150506040830151848203604086015261106c8282610fed565b915050606083015184820360608601526110868282610fed565b915050608083015184820360808601526110a08282610fed565b91505060a083015184820360a08601526110ba8282610fed565b91505060c083015184820360c08601526110d48282610fed565b91505060e083015184820360e08601526110ee8282610fed565b91505061010083015184820361010086015261110a8282610fed565b9150506101208301518482036101208601526111268282610fed565b91505061014083015161113d61014086018261115a565b5061016083015161115261016086018261115a565b509392505050565b611163816109a7565b82525050565b6020808252810161117a8184611025565b9392505050565b60208101610dfc828461115a565b610180810161119e828f61115a565b81810360208301526111b0818e610fed565b905081810360408301526111c4818d610fed565b905081810360608301526111d8818c610fed565b905081810360808301526111ec818b610fed565b905081810360a0830152611200818a610fed565b905081810360c08301526112148189610fed565b905081810360e08301526112288188610fed565b905081810361010083015261123d8187610fed565b90508181036101208301526112528186610fed565b905061126261014083018561115a565b61127061016083018461115a565b9d9c50505050505050505050505050565b60405181810167ffffffffffffffff811182821017156112a057600080fd5b604052919050565b600067ffffffffffffffff8211156112bf57600080fd5b506020601f91909101601f19160190565b5190565b90815260200190565b82818337506000910152565b60005b838110156113045781810151838201526020016112ec565b83811115611313576000848401525b50505050565b601f01601f191690565b61132c816109a7565b811461099a57600080fdfea365627a7a723158207a9c06bd68124008c0ad69c7982dc27c8b7b150716915ef18cafaa4e80e2b7876c6578706572696d656e74616cf564736f6c63430005100040",
  "source": "// SPDX-License-Identifier: MIT\npragma solidity >=0.4.22 <0.9.0;\npragma experimental ABIEncoderV2;\n\ncontract TodoList {\n  uint public taskCount;\n  constructor() public {\n    taskCount = 0;\n  }\n\n  struct Task {\n    uint id;\n    string name;\n    string aadhaar;\n    string pan;\n    string bank;\n    string ifsc;\n//    string branch;\n//    string _address;\n    string phone;\n    string doctor;\n    string city;\n    string pincode;\n    uint age;\n    uint amount;\n  }\n  Task[] private todos;\n\n  event TaskAdded(uint taskCount, string name, string aadhaar, string pan, string bank, string ifsc, string phone, string doctor, string city, string pincode, uint age, uint amount);\n  event DeleteTask(uint id);\n  event MarkDone(uint id);\n\n  function getTaskCount() public view returns(uint) {\n    return taskCount;\n  }\n  function addTask(string memory name, string memory aadhaar, string memory pan, string memory bank, string memory ifsc, string memory phone, string memory doctor, string memory city, string memory pincode, uint age, uint amount) public {\n    ++taskCount;\n    Task memory task = Task(taskCount, name, aadhaar, pan, bank, ifsc, phone, doctor, city, pincode, age, amount);\n    todos.push(task);\n    emit TaskAdded(taskCount, name, aadhaar, pan, bank, ifsc, phone, doctor, city, pincode, age, amount);\n  }\n\n  function deleteTask(uint _id) public {\n    if(_id > taskCount) return;\n\n    for(uint i = _id - 1; i < taskCount - 1; ++i) {\n      todos[i] = todos[i + 1];\n    }\n    todos.pop();\n    taskCount -= 1;\n    emit DeleteTask(_id);\n  }\n\n  function markDone(uint _id) public {\n    require(_id <= taskCount);\n//    todos[_id - 1].completed = true;\n    emit MarkDone(_id);\n  }\n\n  function getTask(uint _id) public view returns(Task memory) {\n    return todos[_id - 1];\n  }\n\n}\n",
  "sourcePath": "D:\\Flutter_Applications\\todolist_blockchain\\contracts\\TodoList.sol",
  "compiler": {
    "name": "solc",
    "version": "0.5.16+commit.9c3226ce.Emscripten.clang"
  },
  "schemaVersion": "3.4.5",
  "updatedAt": "2022-09-23T08:09:28.884Z",
  "networkType": "ethereum",
  "devdoc": {
    "methods": {}
  },
  "userdoc": {
    "methods": {}
  }
}