{
  "contractName": "TodoList",
  "abi": [
    {
      "inputs": [],
      "payable": false,
      "stateMutability": "nonpayable",
      "type": "constructor"
    },
    {
      "constant": true,
      "inputs": [],
      "name": "taskCount",
      "outputs": [
        {
          "internalType": "uint256",
          "name": "",
          "type": "uint256"
        }
      ],
      "payable": false,
      "stateMutability": "view",
      "type": "function"
    },
    {
      "constant": true,
      "inputs": [],
      "name": "getTaskCount",
      "outputs": [
        {
          "internalType": "uint256",
          "name": "",
          "type": "uint256"
        }
      ],
      "payable": false,
      "stateMutability": "view",
      "type": "function"
    },
    {
      "constant": false,
      "inputs": [
        {
          "internalType": "string",
          "name": "_content",
          "type": "string"
        }
      ],
      "name": "addTask",
      "outputs": [],
      "payable": false,
      "stateMutability": "nonpayable",
      "type": "function"
    },
    {
      "constant": false,
      "inputs": [
        {
          "internalType": "uint256",
          "name": "_id",
          "type": "uint256"
        }
      ],
      "name": "markDone",
      "outputs": [],
      "payable": false,
      "stateMutability": "nonpayable",
      "type": "function"
    },
    {
      "constant": true,
      "inputs": [
        {
          "internalType": "uint256",
          "name": "_id",
          "type": "uint256"
        }
      ],
      "name": "getTask",
      "outputs": [
        {
          "components": [
            {
              "internalType": "uint256",
              "name": "id",
              "type": "uint256"
            },
            {
              "internalType": "string",
              "name": "content",
              "type": "string"
            },
            {
              "internalType": "bool",
              "name": "completed",
              "type": "bool"
            }
          ],
          "internalType": "struct TodoList.Task",
          "name": "",
          "type": "tuple"
        }
      ],
      "payable": false,
      "stateMutability": "view",
      "type": "function"
    }
  ],
  "bytecode": "0x608060405234801561001057600080fd5b506000805561060f806100246000396000f3fe608060405234801561001057600080fd5b50600436106100575760003560e01c80631d65e77e1461005c5780634ad0e59014610085578063672385621461009a578063b6cb58a5146100ad578063c17a340e146100c2575b600080fd5b61006f61006a366004610431565b6100ca565b60405161007c91906104e8565b60405180910390f35b610098610093366004610431565b6101bd565b005b6100986100a83660046103f4565b610202565b6100b56102c7565b60405161007c9190610500565b6100b56102cd565b6100d26102d4565b6001808303815481106100e157fe5b906000526020600020906003020160405180606001604052908160008201548152602001600182018054600181600116156101000203166002900480601f01602080910402602001604051908101604052809291908181526020018280546001816001161561010002031660029004801561019d5780601f106101725761010080835404028352916020019161019d565b820191906000526020600020905b81548152906001019060200180831161018057829003601f168201915b50505091835250506002919091015460ff16151560209091015292915050565b6000548111156101cc57600080fd5b60018060018303815481106101dd57fe5b60009182526020909120600390910201600201805460ff191691151591909117905550565b6000805460010190556102136102d4565b506040805160608101825260008054825260208083018581529383018290526001805480820180835591909352835160039093027fb10e2d527612073b26eecdfd717e6a320cf44b4afac2b0732d9fcbe2b7fa0cf6810193845594518051949591948694936102a6937fb10e2d527612073b26eecdfd717e6a320cf44b4afac2b0732d9fcbe2b7fa0cf7019201906102f7565b50604091909101516002909101805460ff1916911515919091179055505050565b60005481565b6000545b90565b604051806060016040528060008152602001606081526020016000151581525090565b828054600181600116156101000203166002900490600052602060002090601f016020900481019282601f1061033857805160ff1916838001178555610365565b82800160010185558215610365579182015b8281111561036557825182559160200191906001019061034a565b50610371929150610375565b5090565b6102d191905b80821115610371576000815560010161037b565b600082601f8301126103a057600080fd5b81356103b36103ae82610535565b61050e565b915080825260208301602083018583830111156103cf57600080fd5b6103da83828461056f565b50505092915050565b80356103ee816105b5565b92915050565b60006020828403121561040657600080fd5b813567ffffffffffffffff81111561041d57600080fd5b6104298482850161038f565b949350505050565b60006020828403121561044357600080fd5b600061042984846103e3565b6104588161056a565b82525050565b60006104698261055d565b6104738185610561565b935061048381856020860161057b565b61048c816105ab565b9093019392505050565b805160009060608401906104aa85826104df565b50602083015184820360208601526104c2828261045e565b91505060408301516104d7604086018261044f565b509392505050565b610458816102d1565b602080825281016104f98184610496565b9392505050565b602081016103ee82846104df565b60405181810167ffffffffffffffff8111828210171561052d57600080fd5b604052919050565b600067ffffffffffffffff82111561054c57600080fd5b506020601f91909101601f19160190565b5190565b90815260200190565b151590565b82818337506000910152565b60005b8381101561059657818101518382015260200161057e565b838111156105a5576000848401525b50505050565b601f01601f191690565b6105be816102d1565b81146105c957600080fd5b5056fea365627a7a7231582011893291ae1c8337ac7ba944f285a20154e9e7a5fa35eddbe4635fcaf57dbf286c6578706572696d656e74616cf564736f6c63430005100040",
  "source": "// SPDX-License-Identifier: MIT\npragma solidity >=0.4.22 <0.9.0;\npragma experimental ABIEncoderV2;\n\ncontract TodoList {\n  uint public taskCount;\n  constructor() public {\n    taskCount = 0;\n  }\n\n  struct Task {\n    uint id;\n    string content;\n    bool completed;\n  }\n  Task[] private todos;\n\n  function getTaskCount() public view returns(uint) {\n    return taskCount;\n  }\n  function addTask(string memory _content) public {\n    ++taskCount;\n    Task memory task = Task(taskCount, _content, false);\n    todos.push(task);\n  }\n\n  function markDone(uint _id) public {\n    require(_id <= taskCount);\n    todos[_id - 1].completed = true;\n  }\n\n  function getTask(uint _id) public view returns(Task memory) {\n    return todos[_id - 1];\n  }\n\n}\n",
  "sourcePath": "D:\\Flutter_Applications\\todolist_blockchain\\contracts\\TodoList.sol",
  "compiler": {
    "name": "solc",
    "version": "0.5.16+commit.9c3226ce.Emscripten.clang"
  },
  "schemaVersion": "3.4.5",
  "updatedAt": "2022-08-12T16:50:06.168Z",
  "networkType": "ethereum",
  "devdoc": {
    "methods": {}
  },
  "userdoc": {
    "methods": {}
  }
}